:020000040000FA
:030000001FFFDC03
:030001001FA09F9E
:030002001F42D4C6
:030003001EE67F77
:030004001E8B92BE
:030005001E32099F
:030006001DD9D52C
:030007001D830353
:030008001D2D7B30
:030009001CD934CB
:03000A001C86450C
:03000B001C34871B
:03000C001BE406EC
:03000D001B94AA97
:03000E001B468509
:03000F001AF97F5C
:030010001AAD9E88
:030011001A62D799
:030012001A192098
:0300130019D0867B
:030014001988EE5A
:0300150019426429
:0300160018FCE1F2
:0300170018B855C1
:030018001874CF8A
:0300190018322D6D
:03001A0017F08B51
:03001B0017AFD04C
:03001C00176FF06B
:03001D0017310D8B
:03001E0016F2F8DF
:03001F0016B5BF54
:03002000167970DE
:03002100163DE2A7
:030022001603378B
:0300230015C949B3
:03002400159039FB
:030025001557D894
:030026001520534F
:0300270014E97F5A
:0300280014B3709E
:03002900147E152D
:03002A0014496E08
:03002B0014158524
:03002C0013E2429A
:03002D0013AFB25C
:03002E00137DC778
:03002F00134C90DF
:03003000131BFEA1
:0300310012EBF9D6
:0300320012BCA558
:03003300128DF338
:03003400125FD088
:0300350012325331
:0300360012056050
:0300370011D900DC
:0300380011AD41C6
:0300390011820031
:03003A0011574D0E
:03003B00112D3153
:03003C0011038924
:03003D0010DA7165
:03003E0010B1E915
:03003F001089D253
:0300400010624902
:03004100103B343D
:0300420010149BFC
:030043000FEE724B
:030044000FC8D50D
:030045000FA3A165
:030046000F7EEC3E
:030047000F5A99B4
:030048000F36C9A7
:030049000F135D35
:03004A000EF0664F
:03004B000ECDD700
:03004C000EABB345
:03004D000E89F029
:03004E000E68A891
:03004F000E47BA9F
:030050000E272157
:030051000E070295
:030052000DE73D7A
:030053000DC7D9FD
:030054000DA8C72D
:030055000D8A1BF6
:030056000D6BC16E
:030057000D4DCF7D
:030058000D303731
:030059000D12F194
:03005A000CF6069B
:03005B000CD96459
:03005C000CBD27B1
:03005D000CA132C1
:03005E000C858F7F
:03005F000C6A33F5
:030060000C4F350D
:030061000C3482DA
:030062000C1A1C59
:030063000BFFF799
:030064000BE62682
:030065000BCCA31E
:030066000BB36574
:030067000B9A767B
:030068000B81BE4B
:030069000B6958C8
:03006A000B512D0A
:03006B000B3958F6
:03006C000B21B1B4
:03006D000B0A5823
:03006E000AF33C56
:03006F000ADC6345
:030070000AC5CCF2
:030071000AAF745F
:030072000A994F99
:030073000A837588
:030074000A6DCC46
:030075000A585EC8
:030076000A432E0C
:030077000A2E3E10
:030078000A197DE5
:030079000A04F77F
:03007A0009F0A2E8
:03007B0009DC9508
:03007C0009C8AE02
:03007D0009B505BD
:03007E0009A1884D
:03007F00098E489F
:03008000097B39C0
:0300810009685AB1
:030082000955B568
:0300830009433AF4
:030084000930F54B
:03008500091EDE73
:03008600090CE87A
:0300870008FB2F44
:0300880008E9A7DD
:0300890008D8454F
:03008A0008C71A8A
:03008B0008B6189C
:03008C0008A5388C
:03008D0008948252
:03008E00088405DE
:03008F000873A350
:030090000863768C
:03009100085369A8
:030092000843958B
:030093000833D55A
:03009400082450ED
:030095000814EA62
:030096000805A6B4
:0300970007F68BDE
:0300980007E79ADD
:0300990007D8C7BE
:03009A0007CA236F
:03009B0007BBA5FB
:03009C0007AD436A
:03009D00079EF9C2
:03009E000790EADE
:03009F000782EEE7
:0300A000077511D0
:0300A10007676886
:0300A2000759CC2F
:0300A300074C63A4
:0300A400073F0B08
:0300A5000731DD43
:0300A6000724D15B
:0300A7000717DC5C
:0300A800070B093A
:0300A90006FE5DF3
:0300AA0006F1CC90
:0300AB0006E55215
:0300AC0006D8F77C
:0300AD0006CCBEC0
:0300AE0006C0A4E5
:0300AF0006B4A1F3
:0300B00006A8B7E8
:0300B100069CF6B4
:0300B20006913C78
:0300B3000685B10E
:0300B400067A3E8B
:0300B500066EE2F2
:0300B60006639C42
:0300B70006587F69
:0300B800064D6C86
:0300B90006427A82
:0300BA000637A75F
:0300BB00062CE42C
:0300BC00062234E5
:0300BD000617A87B
:0300BE00060D35F7
:0300BF000602CA6C
:0300C00005F884BC
:0300C10005EE4DFC
:0300C20005E44012
:0300C30005DA3922
:0300C40005D04C18
:0300C50005C671FC
:0300C60005BCBDB9
:0300C70005B30E70
:0300C80005A97B0C
:0300C90005A0028D
:0300CA00059699FF
:0300CB00058D3A66
:0300CC000583F6B3
:0300CD00057AD5DC
:0300CE000571BFFA
:0300CF000568BD04
:0300D000055FC405
:0300D1000556F1E0
:0300D200054E30A8
:0300D30005457070
:0300D400053CCE1A
:0300D500053445AA
:0300D600052BC037
:0300D70005235AA4
:0300D800051B0005
:0300D9000512C04D
:0300DA00050A8F85
:0300DB00050264B7
:0300DC0004FA5EC5
:0300DD0004F25FCB
:0300DE0004EA65CC
:0300DF0004E288B0
:0300E00004DAC17E
:0300E10004D30342
:0300E20004CB59F3
:0300E30004C3BD96
:0300E40004BC3722
:0300E50004B4AEB2
:0300E60004AD481E
:0300E70004A5F27B
:0300E800049EA5CE
:0300E90004976019
:0300EA0004903946
:0300EB000489176E
:0300EC0004820586
:0300ED00047B0B86
:0300EE0004740C8B
:0300EF00046D2677
:0300F00004665152
:0300F100045F8B1E
:0300F2000458D0DF
:0300F30004522193
:0300F400044B8733
:0300F5000444E5DB
:0300F600043E675E
:0300F7000437EDDE
:0300F80004318749
:0300F900042B26AF
:0300FA000424D704
:0300FB00041E964A
:0300FC0004185F86
:0300FD0004122FBB
:0300FE00040C15DA
:0300FF00040605EF
:00000001ff
