:020000040000FA
:0400000020000006D6
:04000100203FA08478
:04000200207E83FCDD
:0400030020BCAD531D
:0400040020FA1F6857
:040005002136DD07BC
:040006002172E8F487
:0400070021AE45D908
:0400080021E8F66392
:040009002222FD2C86
:04000A00225C5CB365
:04000B00229517889B
:04000C0022CD3016BB
:04000D002304A8CF51
:04000E00233B840309
:04000F002371C40F86
:0400100023A76B3483
:0400110023DC7BB0C1
:040012002410F7BA05
:040013002444E16E32
:0400140024783AF71B
:0400150024AB0660B2
:0400160024DD45B4EC
:04001700250EFAFBBD
:040018002540282235
:040019002570CF2857
:04001A0025A0F1E24A
:04001B0025D0923921
:04001C0025FFB20703
:04001D00262E530434
:04001E00265C770BDA
:04001F00268A1FD33B
:0400200026B74F05AB
:0400210026E4066368
:0400220027104782DA
:04002300273C141151
:0400240027676D9548
:04002500279255B712
:0400260027BCCDE93D
:0400270027E6D7C130
:04002800281074B177
:040029002839A63993
:04002A0028626DC516
:04002B00288ACCBB98
:04002C0028B2C488AA
:04002D0028DA5684F3
:04002E002901840D13
:04002F0029284E6CC2
:04003000294EB6F5AA
:040031002974BEFB75
:04003200299A67ADF3
:0400330029BFB24EE1
:0400340029E4A020FB
:040035002A0932481A
:040036002A2D6A0104
:040037002A51487092
:040038002A74CEAFA9
:040039002A97FDF114
:04003A002ABAD746C1
:04003B002ADD5BC09F
:04003C002AFF8C8289
:04003D002B216A8C7D
:04003E002B42F6E576
:04003F002B6432A359
:040040002B851EB737
:040041002BA5BC2B04
:040042002BC60BF3CB
:040043002BE60F0B8E
:040044002C05C6566B
:040045002C2532D262
:040046002C44555F92
:040047002C632EF107
:040048002C81C05AED
:040049002CA00A8954
:04004A002CBE0E5268
:04004B002CDBCC934B
:04004C002CF9462124
:04004D002D167BD31E
:04004E002D336E6A76
:04004F002D501EC34F
:040050002D6C8DAADC
:040051002D88BBD269
:040052002DA4AA0D22
:040053002DC059194A
:040054002DDBC9BA1D
:040055002DF6FCA1E7
:040056002E11F28FE6
:040057002E2CAC306F
:040058002E472A3CC9
:040059002E616D6740
:04005A002E7B765B28
:04005B002E9545CACF
:04005C002EAEDC5098
:04005D002EC83AA1CE
:04005E002EE1615BD3
:04005F002EFA5127FD
:040060002F130A96BA
:040061002F2B8E5063
:040062002F43DCEE5E
:040063002F5BF70F09
:040064002F73DD3FDA
:040065002F8B901637
:040066002FA310298B
:040067002FBA5E0549
:040068002FD17A44D6
:040069002FE86563B4
:04006A002FFF1FF94C
:04006B003015AA8121
:04006C00302C05959A
:04006D00304231AA42
:04006E0030582F498E
:04006F00306DFEF4FE
:040070003083A12810
:040071003099166448
:0400720030AE5F2C21
:0400730030C37BEB30
:0400740030D86D2AE9
:0400750030ED3358DF
:040076003101CEEA9C
:0400770031164054AA
:04007800312A880F92
:04007900313EA686E8
:04007A0031529C2E35
:04007B003166696918
:04007C00317A0EB512
:04007D00318D8C6FC6
:04007E0031A0E30BBF
:04007F0031B412E99D
:0400800031C71C75F3
:0400810031DA00155B
:0400820031ECBE2877
:0400830031FF5719D9
:040084003211CB4525
:0400850032241B0EF8
:04008600323646DAEE
:0400870032484EFBB2
:04008800325A33D2E3
:04008900326BF5C021
:04008A00327D951717
:04008B00328F123866
:04008C0032A06D7DB4
:04008D0032B1A73AAB
:04008E0032C2BFBFFC
:04008F0032D3B76D44
:0400900032E48E8C3C
:0400910032F5457986
:040092003305DC7ADC
:04009300331653F1DC
:040094003326AC1B48
:040095003336E555C4
:040096003346FFEA04
:040097003356FC25BB
:040098003366DA4FA2
:0400990033769ABB65
:04009A0033863DAAC2
:04009B003395C3696D
:04009C0033A52C4517
:04009D0033B4788977
:04009E0033C3A86858
:04009F0033D2BC3E5E
:0400A00033E1B4464E
:0400A10033F090BEEA
:0400A20033FF51FADD
:0400A300340DF82AF6
:0400A400341C839FE6
:0400A500342AF49174
:0400A60034394B415D
:0400A700344787F45F
:0400A8003455AAE53C
:0400A9003463B44DBB
:0400AA003471A47099
:0400AB00347F7B8D96
:0400AC00348D39DA7C
:0400AD00349ADF9210
:0400AE0034A86CF115
:0400AF0034B5E2344E
:0400B00034C33F9284
:0400B10034D0853D85
:0400B20034DDB37C0A
:0400B30034EACA74ED
:0400B40034F7CA65EE
:0400B5003504B386D5
:0400B6003511860B6F
:0400B700351E42238D
:0400B800352AE80EEF
:0400B900353777F56B
:0400BA003543F20CCC
:0400BB003550568CDA
:0400BC00355CA5A565
:0400BD003568DF8142
:0400BE00357504543C
:0400BF00358114591A
:0400C000358D0FAEBD
:0400C1003598F68FE9
:0400C20035A4C91D7B
:0400C30035B0879736
:0400C40035BC3220F5
:0400C50035C7C8EA89
:0400C60035D34C17CB
:0400C70035DEBBE384
:0400C80035EA186E8F
:0400C90035F561E4C4
:0400CA0036009875EF
:0400CB00360BBC4DE7
:0400CC003616CD8E89
:0400CD003621CC5DAF
:0400CE00362CB8EF25
:0400CF0036379366C7
:0400D00036425BF267
:0400D100364D12AAEC
:0400D2003657B7BF27
:0400D30036624B60E6
:0400D400366CCDA514
:0400D50036773EB785
:0400D60036819EC50C
:0400D700368BEDE691
:0400D80036962C48E4
:0400D90036A05A09EA
:0400DA0036AA775378
:0400DB0036B4844B68
:0400DC0036BE8108A3
:0400DD0036C86DB9FB
:0400DE0036D24A814B
:0400DF0036DC17797B
:0400E00036E5D4C469
:0400E10036EF8289EB
:0400E20036F920E5E6
:0400E3003702AFFB36
:0400E400370C2FE6C0
:0400E5003715A0D457
:0400E600371F02D2EC
:0400E700372856065A
:0400E80037319A967C
:0400E900373AD09E34
:0400EA003743F8326E
:0400EB00374D117EFE
:0400EC0037561C99CE
:0400ED00375F199CC4
:0400EE00376808B3B4
:0400EF003770E9ED90
:0400F0003779BD6837
:0400F100378283438C
:0400F200378B3B9C71
:0400F3003793E68DCC
:0400F400379C842D84
:0400F50037A514A671
:0400F60037AD97FE8D
:0400F70037B60E5EAC
:0400F80037BE77D8C0
:0400F90037C6D48FA3
:0400FA0037CF249642
:0400FB0037D7680784
:0400FC0037DF9EFE4E
:0400FD0037E7C99781
:0400FE0037EFE7E110
:0400FF0037F7F9FCDA
:00000001ff
