:020000040000FA
:020000002000DE
:020001002000DD
:020002002000DC
:020003002000DB
:020004002000DA
:020005002000D9
:020006002000D8
:020007002000D7
:020008002000D6
:020009002000D5
:02000A002000D4
:02000B002000D3
:02000C002000D2
:02000D002000D1
:02000E002000D0
:02000F001FFFD1
:020010001FFFD0
:020011001FFFCF
:020012001FFFCE
:020013001FFFCD
:020014001FFFCC
:020015001FFFCB
:020016001FFFCA
:020017001FFFC9
:020018001FFFC8
:020019001FFEC8
:02001A001FFEC7
:02001B001FFEC6
:02001C001FFEC5
:02001D001FFEC4
:02001E001FFEC3
:02001F001FFEC2
:020020001FFEC1
:020021001FFDC1
:020022001FFDC0
:020023001FFDBF
:020024001FFDBE
:020025001FFDBD
:020026001FFDBC
:020027001FFCBC
:020028001FFCBB
:020029001FFCBA
:02002A001FFCB9
:02002B001FFCB8
:02002C001FFBB8
:02002D001FFBB7
:02002E001FFBB6
:02002F001FFBB5
:020030001FFAB5
:020031001FFAB4
:020032001FFAB3
:020033001FFAB2
:020034001FF9B2
:020035001FF9B1
:020036001FF9B0
:020037001FF9AF
:020038001FF8AF
:020039001FF8AE
:02003A001FF8AD
:02003B001FF8AC
:02003C001FF7AC
:02003D001FF7AB
:02003E001FF7AA
:02003F001FF6AA
:020040001FF6A9
:020041001FF6A8
:020042001FF6A7
:020043001FF5A7
:020044001FF5A6
:020045001FF5A5
:020046001FF4A5
:020047001FF4A4
:020048001FF4A3
:020049001FF3A3
:02004A001FF3A2
:02004B001FF2A2
:02004C001FF2A1
:02004D001FF2A0
:02004E001FF1A0
:02004F001FF19F
:020050001FF19E
:020051001FF09E
:020052001FF09D
:020053001FEF9D
:020054001FEF9C
:020055001FEF9B
:020056001FEE9B
:020057001FEE9A
:020058001FED9A
:020059001FED99
:02005A001FEC99
:02005B001FEC98
:02005C001FEC97
:02005D001FEB97
:02005E001FEB96
:02005F001FEA96
:020060001FEA95
:020061001FE995
:020062001FE994
:020063001FE894
:020064001FE893
:020065001FE793
:020066001FE792
:020067001FE692
:020068001FE691
:020069001FE591
:02006A001FE590
:02006B001FE490
:02006C001FE48F
:02006D001FE38F
:02006E001FE38E
:02006F001FE28E
:020070001FE28D
:020071001FE18D
:020072001FE18C
:020073001FE08C
:020074001FE08B
:020075001FDF8B
:020076001FDE8B
:020077001FDE8A
:020078001FDD8A
:020079001FDD89
:02007A001FDC89
:02007B001FDC88
:02007C001FDB88
:02007D001FDA88
:02007E001FDA87
:02007F001FD987
:020080001FD986
:020081001FD886
:020082001FD786
:020083001FD785
:020084001FD685
:020085001FD585
:020086001FD584
:020087001FD484
:020088001FD384
:020089001FD383
:02008A001FD283
:02008B001FD183
:02008C001FD182
:02008D001FD082
:02008E001FCF82
:02008F001FCF81
:020090001FCE81
:020091001FCD81
:020092001FCD80
:020093001FCC80
:020094001FCB80
:020095001FCB7F
:020096001FCA7F
:020097001FC97F
:020098001FC87F
:020099001FC87E
:02009A001FC77E
:02009B001FC67E
:02009C001FC57E
:02009D001FC57D
:02009E001FC47D
:02009F001FC37D
:0200A0001FC27D
:0200A1001FC27C
:0200A2001FC17C
:0200A3001FC07C
:0200A4001FBF7C
:0200A5001FBE7C
:0200A6001FBE7B
:0200A7001FBD7B
:0200A8001FBC7B
:0200A9001FBB7B
:0200AA001FBA7B
:0200AB001FBA7A
:0200AC001FB97A
:0200AD001FB87A
:0200AE001FB77A
:0200AF001FB67A
:0200B0001FB57A
:0200B1001FB579
:0200B2001FB479
:0200B3001FB379
:0200B4001FB279
:0200B5001FB179
:0200B6001FB079
:0200B7001FAF79
:0200B8001FAF78
:0200B9001FAE78
:0200BA001FAD78
:0200BB001FAC78
:0200BC001FAB78
:0200BD001FAA78
:0200BE001FA978
:0200BF001FA878
:0200C0001FA778
:0200C1001FA678
:0200C2001FA578
:0200C3001FA577
:0200C4001FA477
:0200C5001FA377
:0200C6001FA277
:0200C7001FA177
:0200C8001FA077
:0200C9001F9F77
:0200CA001F9E77
:0200CB001F9D77
:0200CC001F9C77
:0200CD001F9B77
:0200CE001F9A77
:0200CF001F9977
:0200D0001F9877
:0200D1001F9777
:0200D2001F9677
:0200D3001F9577
:0200D4001F9477
:0200D5001F9377
:0200D6001F9277
:0200D7001F9177
:0200D8001F9077
:0200D9001F8F77
:0200DA001F8E77
:0200DB001F8D77
:0200DC001F8C77
:0200DD001F8B77
:0200DE001F8A77
:0200DF001F8878
:0200E0001F8778
:0200E1001F8678
:0200E2001F8578
:0200E3001F8478
:0200E4001F8378
:0200E5001F8278
:0200E6001F8178
:0200E7001F8078
:0200E8001F7F78
:0200E9001F7E78
:0200EA001F7C79
:0200EB001F7B79
:0200EC001F7A79
:0200ED001F7979
:0200EE001F7879
:0200EF001F7779
:0200F0001F7679
:0200F1001F747A
:0200F2001F737A
:0200F3001F727A
:0200F4001F717A
:0200F5001F707A
:0200F6001F6F7A
:0200F7001F6D7B
:0200F8001F6C7B
:0200F9001F6B7B
:0200FA001F6A7B
:0200FB001F697B
:0200FC001F677C
:0200FD001F667C
:0200FE001F657C
:0200FF001F647C
:020100001F637B
:020101001F617C
:020102001F607C
:020103001F5F7C
:020104001F5E7C
:020105001F5C7D
:020106001F5B7D
:020107001F5A7D
:020108001F597D
:020109001F577E
:02010A001F567E
:02010B001F557E
:02010C001F547E
:02010D001F527F
:02010E001F517F
:02010F001F507F
:020110001F4E80
:020111001F4D80
:020112001F4C80
:020113001F4A81
:020114001F4981
:020115001F4881
:020116001F4682
:020117001F4582
:020118001F4482
:020119001F4283
:02011A001F4183
:02011B001F4083
:02011C001F3E84
:02011D001F3D84
:02011E001F3C84
:02011F001F3A85
:020120001F3985
:020121001F3885
:020122001F3686
:020123001F3586
:020124001F3387
:020125001F3287
:020126001F3187
:020127001F2F88
:020128001F2E88
:020129001F2C89
:02012A001F2B89
:02012B001F2A89
:02012C001F288A
:02012D001F278A
:02012E001F258B
:02012F001F248B
:020130001F228C
:020131001F218C
:020132001F1F8D
:020133001F1E8D
:020134001F1C8E
:020135001F1B8E
:020136001F1A8E
:020137001F188F
:020138001F178F
:020139001F1590
:02013A001F1490
:02013B001F1291
:02013C001F1191
:02013D001F0F92
:02013E001F0E92
:02013F001F0C93
:020140001F0A94
:020141001F0994
:020142001F0795
:020143001F0695
:020144001F0496
:020145001F0396
:020146001F0197
:020147001F0097
:020148001EFE99
:020149001EFD99
:02014A001EFB9A
:02014B001EF99B
:02014C001EF89B
:02014D001EF69C
:02014E001EF59C
:02014F001EF39D
:020150001EF19E
:020151001EF09E
:020152001EEE9F
:020153001EED9F
:020154001EEBA0
:020155001EE9A1
:020156001EE8A1
:020157001EE6A2
:020158001EE5A2
:020159001EE3A3
:02015A001EE1A4
:02015B001EE0A4
:02015C001EDEA5
:02015D001EDCA6
:02015E001EDBA6
:02015F001ED9A7
:020160001ED7A8
:020161001ED6A8
:020162001ED4A9
:020163001ED2AA
:020164001ED1AA
:020165001ECFAB
:020166001ECDAC
:020167001ECBAD
:020168001ECAAD
:020169001EC8AE
:02016A001EC6AF
:02016B001EC5AF
:02016C001EC3B0
:02016D001EC1B1
:02016E001EBFB2
:02016F001EBEB2
:020170001EBCB3
:020171001EBAB4
:020172001EB8B5
:020173001EB7B5
:020174001EB5B6
:020175001EB3B7
:020176001EB1B8
:020177001EAFB9
:020178001EAEB9
:020179001EACBA
:02017A001EAABB
:02017B001EA8BC
:02017C001EA7BC
:02017D001EA5BD
:02017E001EA3BE
:02017F001EA1BF
:020180001E9FC0
:020181001E9DC1
:020182001E9CC1
:020183001E9AC2
:020184001E98C3
:020185001E96C4
:020186001E94C5
:020187001E92C6
:020188001E91C6
:020189001E8FC7
:02018A001E8DC8
:02018B001E8BC9
:02018C001E89CA
:02018D001E87CB
:02018E001E85CC
:02018F001E83CD
:020190001E81CE
:020191001E80CE
:020192001E7ECF
:020193001E7CD0
:020194001E7AD1
:020195001E78D2
:020196001E76D3
:020197001E74D4
:020198001E72D5
:020199001E70D6
:02019A001E6ED7
:02019B001E6CD8
:02019C001E6AD9
:02019D001E68DA
:02019E001E66DB
:02019F001E65DB
:0201A0001E63DC
:0201A1001E61DD
:0201A2001E5FDE
:0201A3001E5DDF
:0201A4001E5BE0
:0201A5001E59E1
:0201A6001E57E2
:0201A7001E55E3
:0201A8001E53E4
:0201A9001E51E5
:0201AA001E4FE6
:0201AB001E4DE7
:0201AC001E4BE8
:0201AD001E49E9
:0201AE001E46EB
:0201AF001E44EC
:0201B0001E42ED
:0201B1001E40EE
:0201B2001E3EEF
:0201B3001E3CF0
:0201B4001E3AF1
:0201B5001E38F2
:0201B6001E36F3
:0201B7001E34F4
:0201B8001E32F5
:0201B9001E30F6
:0201BA001E2EF7
:0201BB001E2CF8
:0201BC001E2AF9
:0201BD001E27FB
:0201BE001E25FC
:0201BF001E23FD
:0201C0001E21FE
:0201C1001E1FFF
:0201C2001E1D00
:0201C3001E1B01
:0201C4001E1902
:0201C5001E1604
:0201C6001E1405
:0201C7001E1206
:0201C8001E1007
:0201C9001E0E08
:0201CA001E0C09
:0201CB001E0A0A
:0201CC001E070C
:0201CD001E050D
:0201CE001E030E
:0201CF001E010F
:0201D0001DFF11
:0201D1001DFC13
:0201D2001DFA14
:0201D3001DF815
:0201D4001DF616
:0201D5001DF417
:0201D6001DF119
:0201D7001DEF1A
:0201D8001DED1B
:0201D9001DEB1C
:0201DA001DE91D
:0201DB001DE61F
:0201DC001DE420
:0201DD001DE221
:0201DE001DE022
:0201DF001DDD24
:0201E0001DDB25
:0201E1001DD926
:0201E2001DD727
:0201E3001DD429
:0201E4001DD22A
:0201E5001DD02B
:0201E6001DCD2D
:0201E7001DCB2E
:0201E8001DC92F
:0201E9001DC730
:0201EA001DC432
:0201EB001DC233
:0201EC001DC034
:0201ED001DBD36
:0201EE001DBB37
:0201EF001DB938
:0201F0001DB63A
:0201F1001DB43B
:0201F2001DB23C
:0201F3001DAF3E
:0201F4001DAD3F
:0201F5001DAB40
:0201F6001DA842
:0201F7001DA643
:0201F8001DA444
:0201F9001DA146
:0201FA001D9F47
:0201FB001D9C49
:0201FC001D9A4A
:0201FD001D984B
:0201FE001D954D
:0201FF001D934E
:020200001D904F
:020201001D8E50
:020202001D8C51
:020203001D8953
:020204001D8754
:020205001D8456
:020206001D8257
:020207001D7F59
:020208001D7D5A
:020209001D7B5B
:02020A001D785D
:02020B001D765E
:02020C001D7360
:02020D001D7161
:02020E001D6E63
:02020F001D6C64
:020210001D6966
:020211001D6767
:020212001D6469
:020213001D626A
:020214001D5F6C
:020215001D5D6D
:020216001D5A6F
:020217001D5870
:020218001D5572
:020219001D5373
:02021A001D5075
:02021B001D4E76
:02021C001D4B78
:02021D001D4979
:02021E001D467B
:02021F001D447C
:020220001D417E
:020221001D3F7F
:020222001D3C81
:020223001D3A82
:020224001D3784
:020225001D3486
:020226001D3287
:020227001D2F89
:020228001D2D8A
:020229001D2A8C
:02022A001D288D
:02022B001D258F
:02022C001D2291
:02022D001D2092
:02022E001D1D94
:02022F001D1B95
:020230001D1897
:020231001D1599
:020232001D139A
:020233001D109C
:020234001D0D9E
:020235001D0B9F
:020236001D08A1
:020237001D05A3
:020238001D03A4
:020239001D00A6
:02023A001CFEA8
:02023B001CFBAA
:02023C001CF8AC
:02023D001CF6AD
:02023E001CF3AF
:02023F001CF0B1
:020240001CEDB3
:020241001CEBB4
:020242001CE8B6
:020243001CE5B8
:020244001CE3B9
:020245001CE0BB
:020246001CDDBD
:020247001CDBBE
:020248001CD8C0
:020249001CD5C2
:02024A001CD2C4
:02024B001CD0C5
:02024C001CCDC7
:02024D001CCAC9
:02024E001CC7CB
:02024F001CC5CC
:020250001CC2CE
:020251001CBFD0
:020252001CBCD2
:020253001CBAD3
:020254001CB7D5
:020255001CB4D7
:020256001CB1D9
:020257001CAFDA
:020258001CACDC
:020259001CA9DE
:02025A001CA6E0
:02025B001CA3E2
:02025C001CA1E3
:02025D001C9EE5
:02025E001C9BE7
:02025F001C98E9
:020260001C95EB
:020261001C92ED
:020262001C90EE
:020263001C8DF0
:020264001C8AF2
:020265001C87F4
:020266001C84F6
:020267001C81F8
:020268001C7FF9
:020269001C7CFB
:02026A001C79FD
:02026B001C76FF
:02026C001C7301
:02026D001C7003
:02026E001C6D05
:02026F001C6A07
:020270001C6808
:020271001C650A
:020272001C620C
:020273001C5F0E
:020274001C5C10
:020275001C5912
:020276001C5614
:020277001C5316
:020278001C5018
:020279001C4D1A
:02027A001C4A1C
:02027B001C471E
:02027C001C451F
:02027D001C4221
:02027E001C3F23
:02027F001C3C25
:020280001C3927
:020281001C3629
:020282001C332B
:020283001C302D
:020284001C2D2F
:020285001C2A31
:020286001C2733
:020287001C2435
:020288001C2137
:020289001C1E39
:02028A001C1B3B
:02028B001C183D
:02028C001C153F
:02028D001C1241
:02028E001C0F43
:02028F001C0C45
:020290001C0947
:020291001C0649
:020292001C034B
:020293001C004D
:020294001BFD50
:020295001BFA52
:020296001BF754
:020297001BF357
:020298001BF059
:020299001BED5B
:02029A001BEA5D
:02029B001BE75F
:02029C001BE461
:02029D001BE163
:02029E001BDE65
:02029F001BDB67
:0202A0001BD869
:0202A1001BD56B
:0202A2001BD26D
:0202A3001BCE70
:0202A4001BCB72
:0202A5001BC874
:0202A6001BC576
:0202A7001BC278
:0202A8001BBF7A
:0202A9001BBC7C
:0202AA001BB97E
:0202AB001BB581
:0202AC001BB283
:0202AD001BAF85
:0202AE001BAC87
:0202AF001BA989
:0202B0001BA68B
:0202B1001BA28E
:0202B2001B9F90
:0202B3001B9C92
:0202B4001B9994
:0202B5001B9696
:0202B6001B9398
:0202B7001B8F9B
:0202B8001B8C9D
:0202B9001B899F
:0202BA001B86A1
:0202BB001B83A3
:0202BC001B7FA6
:0202BD001B7CA8
:0202BE001B79AA
:0202BF001B76AC
:0202C0001B73AE
:0202C1001B6FB1
:0202C2001B6CB3
:0202C3001B69B5
:0202C4001B66B7
:0202C5001B62BA
:0202C6001B5FBC
:0202C7001B5CBE
:0202C8001B59C0
:0202C9001B55C3
:0202CA001B52C5
:0202CB001B4FC7
:0202CC001B4BCA
:0202CD001B48CC
:0202CE001B45CE
:0202CF001B42D0
:0202D0001B3ED3
:0202D1001B3BD5
:0202D2001B38D7
:0202D3001B34DA
:0202D4001B31DC
:0202D5001B2EDE
:0202D6001B2AE1
:0202D7001B27E3
:0202D8001B24E5
:0202D9001B20E8
:0202DA001B1DEA
:0202DB001B1AEC
:0202DC001B16EF
:0202DD001B13F1
:0202DE001B10F3
:0202DF001B0CF6
:0202E0001B09F8
:0202E1001B06FA
:0202E2001B02FD
:0202E3001AFF00
:0202E4001AFC02
:0202E5001AF805
:0202E6001AF507
:0202E7001AF10A
:0202E8001AEE0C
:0202E9001AEB0E
:0202EA001AE711
:0202EB001AE413
:0202EC001AE016
:0202ED001ADD18
:0202EE001ADA1A
:0202EF001AD61D
:0202F0001AD31F
:0202F1001ACF22
:0202F2001ACC24
:0202F3001AC827
:0202F4001AC529
:0202F5001AC22B
:0202F6001ABE2E
:0202F7001ABB30
:0202F8001AB733
:0202F9001AB435
:0202FA001AB038
:0202FB001AAD3A
:0202FC001AA93D
:0202FD001AA63F
:0202FE001AA242
:0202FF001A9F44
:020300001A9B46
:020301001A9848
:020302001A944B
:020303001A914D
:020304001A8D50
:020305001A8A52
:020306001A8655
:020307001A8357
:020308001A7F5A
:020309001A7C5C
:02030A001A785F
:02030B001A7561
:02030C001A7164
:02030D001A6E66
:02030E001A6A69
:02030F001A676B
:020310001A636E
:020311001A5F71
:020312001A5C73
:020313001A5876
:020314001A5578
:020315001A517B
:020316001A4E7D
:020317001A4A80
:020318001A4683
:020319001A4385
:02031A001A3F88
:02031B001A3C8A
:02031C001A388D
:02031D001A3490
:02031E001A3192
:02031F001A2D95
:020320001A2A97
:020321001A269A
:020322001A229D
:020323001A1F9F
:020324001A1BA2
:020325001A18A4
:020326001A14A7
:020327001A10AA
:020328001A0DAC
:020329001A09AF
:02032A001A05B2
:02032B001A02B4
:02032C0019FEB8
:02032D0019FABB
:02032E0019F7BD
:02032F0019F3C0
:0203300019EFC3
:0203310019ECC5
:0203320019E8C8
:0203330019E4CB
:0203340019E1CD
:0203350019DDD0
:0203360019D9D3
:0203370019D5D6
:0203380019D2D8
:0203390019CEDB
:02033A0019CADE
:02033B0019C7E0
:02033C0019C3E3
:02033D0019BFE6
:02033E0019BBE9
:02033F0019B8EB
:0203400019B4EE
:0203410019B0F1
:0203420019ACF4
:0203430019A9F6
:0203440019A5F9
:0203450019A1FC
:02034600199DFF
:02034700199A01
:02034800199604
:02034900199207
:02034A00198E0A
:02034B00198A0D
:02034C0019870F
:02034D00198312
:02034E00197F15
:02034F00197B18
:0203500019771B
:0203510019741D
:02035200197020
:02035300196C23
:02035400196826
:02035500196429
:0203560019612B
:02035700195D2E
:02035800195931
:02035900195534
:02035A00195137
:02035B00194D3A
:02035C00194A3C
:02035D0019463F
:02035E00194242
:02035F00193E45
:02036000193A48
:0203610019364B
:0203620019324E
:02036300192F50
:02036400192B53
:02036500192756
:02036600192359
:02036700191F5C
:02036800191B5F
:02036900191762
:02036A00191365
:02036B00190F68
:02036C00190B6B
:02036D0019086D
:02036E00190470
:02036F00190073
:0203700018FC77
:0203710018F87A
:0203720018F47D
:0203730018F080
:0203740018EC83
:0203750018E886
:0203760018E489
:0203770018E08C
:0203780018DC8F
:0203790018D892
:02037A0018D495
:02037B0018D098
:02037C0018CC9B
:02037D0018C89E
:02037E0018C4A1
:02037F0018C0A4
:0203800018BDA6
:0203810018B9A9
:0203820018B5AC
:0203830018B1AF
:0203840018ADB2
:0203850018A9B5
:0203860018A5B8
:0203870018A1BB
:02038800189CBF
:020389001898C2
:02038A001894C5
:02038B001890C8
:02038C00188CCB
:02038D001888CE
:02038E001884D1
:02038F001880D4
:02039000187CD7
:020391001878DA
:020392001874DD
:020393001870E0
:02039400186CE3
:020395001868E6
:020396001864E9
:020397001860EC
:02039800185CEF
:020399001858F2
:02039A001854F5
:02039B001850F8
:02039C00184BFC
:02039D001847FF
:02039E00184302
:02039F00183F05
:0203A000183B08
:0203A10018370B
:0203A20018330E
:0203A300182F11
:0203A400182B14
:0203A500182618
:0203A60018221B
:0203A700181E1E
:0203A800181A21
:0203A900181624
:0203AA00181227
:0203AB00180E2A
:0203AC00180A2D
:0203AD00180531
:0203AE00180134
:0203AF0017FD38
:0203B00017F93B
:0203B10017F53E
:0203B20017F141
:0203B30017EC45
:0203B40017E848
:0203B50017E44B
:0203B60017E04E
:0203B70017DC51
:0203B80017D854
:0203B90017D358
:0203BA0017CF5B
:0203BB0017CB5E
:0203BC0017C761
:0203BD0017C364
:0203BE0017BE68
:0203BF0017BA6B
:0203C00017B66E
:0203C10017B271
:0203C20017AD75
:0203C30017A978
:0203C40017A57B
:0203C50017A17E
:0203C600179C82
:0203C700179885
:0203C800179488
:0203C90017908B
:0203CA00178B8F
:0203CB00178792
:0203CC00178395
:0203CD00177F98
:0203CE00177A9C
:0203CF0017769F
:0203D0001772A2
:0203D100176EA5
:0203D2001769A9
:0203D3001765AC
:0203D4001761AF
:0203D500175CB3
:0203D6001758B6
:0203D7001754B9
:0203D8001750BC
:0203D900174BC0
:0203DA001747C3
:0203DB001743C6
:0203DC00173ECA
:0203DD00173ACD
:0203DE001736D0
:0203DF001731D4
:0203E000172DD7
:0203E1001729DA
:0203E2001724DE
:0203E3001720E1
:0203E400171CE4
:0203E5001717E8
:0203E6001713EB
:0203E700170FEE
:0203E800170AF2
:0203E9001706F5
:0203EA001702F8
:0203EB0016FDFD
:0203EC0016F900
:0203ED0016F404
:0203EE0016F007
:0203EF0016EC0A
:0203F00016E70E
:0203F10016E311
:0203F20016DE15
:0203F30016DA18
:0203F40016D61B
:0203F50016D11F
:0203F60016CD22
:0203F70016C826
:0203F80016C429
:0203F90016C02C
:0203FA0016BB30
:0203FB0016B733
:0203FC0016B237
:0203FD0016AE3A
:0203FE0016A93E
:0203FF0016A541
:00000001ff
