:020000040000FA
:050000002000000004D7
:050001001FE01FE024D8
:050002001FC07F020099
:050003001FA11CAA066C
:050004001F81F81F86BA
:050005001F6310ACA513
:050006001F44659E4E41
:050007001F25F644274F
:050008001F07C1F0809C
:050009001EE9C7F849E3
:05000A001ECC07B30647
:05000B001EAE807ABE6C
:05000C001E9131ABF56F
:05000D001E741AA59B02
:05000E001E573AC9066F
:05000F001E3A9179E0AA
:050010001E1E1E1E2251
:050011001E01E01E06C7
:050012001DE5D6E3FC32
:050013001DCA01DCA480
:050014001DAE6076BD89
:050015001D92F2232200
:050016001D77B654BC8B
:050017001D5CAC8079C6
:050018001D41D41D464E
:050019001D272CA400CE
:05001A001D0CB58F7301
:05001B001CF26E5C49BF
:05001C001CD856890705
:05001D001CBE6D9606FB
:05001E001CA4B3056302
:05001F001C8B265AFFB6
:050020001C71C71C76F5
:050021001C5894D111F0
:050022001C3F8F01C826
:050023001C26B5393276
:050024001C0E0703861D
:050025001BF583EE8ACB
:050026001BDD2B899891
:050027001BC4FD658C07
:050028001BACF914C639
:050029001B951E2B1DBC
:05002A001B7D6C3DDEB2
:05002B001B65E2E3C3C8
:05002C001B4E81B4EC45
:05002D001B37484ADC0E
:05002E001B20364070AC
:05002F001B094B31DD4F
:050030001AF286BCA6D7
:050031001ADBE87F98D6
:050032001AC5701AC997
:050033001AAF1D2F8C27
:050034001A98EF606E58
:050035001A82E65135BE
:050036001A6D01A6D4C3
:050037001A5741076C9F
:050038001A41A41A4664
:050039001A2C2A87C902
:05003A001A16D3F97E47
:05003B001A01A01A06E5
:05003C0019EC8E951483
:05003D0019D79F176FA9
:05003E0019C2D14EE9DA
:05003F0019AE24EA598E
:05004000199999999E39
:0500410019852F0D934D
:050042001970E4F81143
:05004300195CBB0BE796
:050044001948B0FCDBCF
:050045001934C67F9F85
:050046001920FB49D563
:05004700190D4F120528
:0500480018F9C18FA0B2
:0500490018E6527AF5F3
:05004A0018D3018D3404
:05004B0018BFCE806724
:05004C0018ACB90F70B3
:05004D001899C0F60542
:05004E001886E5F0B08A
:05004F00187427BCC578
:0500500018618618652F
:05005100184F00C27C05
:05005200183C977AB78D
:05005300182A4A018794
:05005400181818181C2B
:050055001806018064A3
:0500560017F405FD0593
:0500570017E225515ED7
:0500580017D05F41819B
:0500590017BEB3923256
:05005A0017AD2208E5CE
:05005B00179BAA6BBA1F
:05005C00178A4C817DB4
:05005D00177908119F56
:05005E001767DCE43926
:05005F001756CAC2059E
:050060001745D1746199
:050061001734F0C54654
:050062001724287F4B6C
:050063001713786DA0E9
:050064001702E05C0F33
:0500650016F26016F622
:0500660016E1F76B47F5
:0500670016D1A626865B
:0500680016C16C16C575
:0500690016B1490AA7D1
:05006A0016A13CD15776
:05006B001691473A8DDB
:05006C001681681685F5
:05006D0016719F36052D
:05006E001661EC6A556B
:05006F0016524F853F11
:050070001642C8590F03
:05007100163356B88FA4
:050072001623FA7705DA
:050073001614B368360D
:05007400160581605C2F
:0500750015F664342DB6
:0500760015E75BB8D4A2
:0500770015D867C3F17C
:0500780015C9882B975B
:0500790015BABCC64CE5
:05007A0015AC056B054B
:05007B00159D61F12854
:05007C00158ED2308555
:05007D00158056015C36
:05007E001571ED3C547A
:05007F00156397BA8033
:0500800015555555590E
:05008100154725E6BF54
:0500820015390948F8E2
:05008300152AFF56AC38
:05008400151D07EAE76D
:05008500150F22E11639
:050086001501501505F5
:0500870014F38F62E19B
:0500880014E5E0A733C0
:0500890014D843BEE0A5
:05008A0014CAB8872A2A
:05008B0014BD3EDDABD9
:05008C0014AFD6A057DF
:05008D0014A27FAD7A12
:05008E00149539E3B7F1
:05008F001488052205A4
:05009000147AE147B203
:05009100146DCE345D8A
:050092001460CBC7FA69
:050093001453D9E2CB7B
:050094001446F8656749
:05009500143A2730B011
:05009600142D6625D9C0
:050097001420B52662F3
:050098001414141418FB
:05009900140782D112E2
:05009A0013FB013FB45F
:05009B0013EE8F42AAE4
:05009C0013E22CBCE999
:05009D0013D5D991AE5E
:05009E0013C995A480C8
:05009F0013BD60D9272C
:0500A00013B13B13B594
:0500A10013A524387FC7
:0500A20013991C2C1C49
:0500A300138D22D36A59
:0500A4001381381385F3
:0500A50013755BD1CDD5
:0500A60013698DF3E277
:0500A700135DCE5FA314
:0500A80013521CFB2FA8
:0500A900134679ACE4F0
:0500AA00133AE45B5C69
:0500AB00132F5CED6E57
:0500AC001323E34A2FBD
:0500AD0013187758EE66
:0500AE00130D190135DE
:0500AF001301C82AC87E
:0500B00012F684BDA55D
:0500B10012EB4EA2035A
:0500B20012E025C04F23
:0500B30012D50A013125
:0500B40012C9FB4D859F
:0500B50012BEF98E5E91
:0500B60012B404AD05C9
:0500B70012A91C92F8E3
:0500B800129E4129E841
:0500B9001293725BBC14
:0500BA001288B0128D58
:0500BB00127DFA38A6D9
:0500BC00127350B8852D
:0500BD001268B37CDABB
:0500BE00125E227085B6
:0500BF0012539D7E9527
:0500C000124924924DDD
:0500C100123EB7971B81
:0500C200123456789F86
:0500C300122A0122A435
:0500C400121FB78126A8
:0500C500121579804CCA
:0500C600120B470C6C59
:0500C7001201201205EA
:0500C80011F7047DC5E5
:0500C90011ECF43C8481
:0500CA0011E2EF3B44D0
:0500CB0011D8F56732B9
:0500CC0011CF06ADA6F6
:0500CD0011C522FC2119
:0500CE0011BB4A404B8C
:0500CF0011B17C67F790
:0500D00011A7B9611E3B
:0500D100119E0119E47D
:0500D200119453809120
:0500D300118AB08394C6
:0500D4001181181185E7
:0500D50011778A1920DB
:0500D600116E068946D1
:0500D70011648D5100D1
:0500D800115B1E5F79C1
:0500D9001151B9A40261
:0500DA0011485F0E0F4C
:0500DB00113F0E8D38FD
:0500DC001135C8113AC6
:0500DD00112C8B89F2DB
:0500DE00112358E76149
:0500DF00111A3019ABFD
:0500E0001111111115C2
:0500E1001107FBBE0544
:0500E20010FEF0110307
:0500E30010F5EDFAB775
:0500E40010ECF56BEBD0
:0500E50010E406558641
:0500E60010DB20A893CF
:0500E70010D244563A5E
:0500E80010C9714FC1B9
:0500E90010C0A7868F86
:0500EA0010B7E6EC2A4E
:0500EB0010AF2F72337D
:0500EC0010A6810A6C62
:0500ED00109DDBA6B42C
:0500EE0010953F3905EB
:0500EF00108CABB37999
:0500F000108421084608
:0500F100107B9F29BDFA
:0500F2001073260A4C0A
:0500F300106AB59C7DC0
:0500F40010624DD2F680
:0500F5001059EEA07699
:0500F600105197F7DB3B
:0500F700104949CC1A7C
:0500F800104104104559
:0500F9001038C6B786B7
:0500FA00103091B52358
:0500FB00102864FC7BED
:0500FC00102040810608
:0500FD00101824365527
:0500FE001010101014A9
:0500FF001008040205D9
:00000001ff
