:020000040000FA
:020000000000FE
:020001000019E4
:020002000032CA
:02000300004BB0
:02000400006595
:02000500007E7B
:02000600009761
:0200070000B047
:0200080000C92D
:0200090000E213
:02000A0000FBF9
:02000B000114DE
:02000C00012EC3
:02000D000147A9
:02000E0001608F
:02000F00017975
:0200100001925B
:0200110001AB41
:0200120001C427
:0200130001DD0D
:0200140001F6F3
:02001500020FD8
:020016000229BD
:020017000242A3
:02001800025B89
:0200190002746F
:02001A00028D55
:02001B0002A63B
:02001C0002BF21
:02001D0002D807
:02001E0002F1ED
:02001F00030AD2
:020020000323B8
:02002100033C9E
:02002200035584
:02002300036E6A
:02002400038750
:0200250003A036
:0200260003B91C
:0200270003D202
:0200280003EBE8
:020029000404CD
:02002A00041DB3
:02002B00043699
:02002C00044E80
:02002D00046766
:02002E0004804C
:02002F00049932
:0200300004B218
:0200310004CBFE
:0200320004E4E4
:0200330004FDCA
:020034000515B0
:02003500052E96
:0200360005477C
:02003700056062
:02003800057948
:0200390005912F
:02003A0005AA15
:02003B0005C3FB
:02003C0005DBE2
:02003D0005F4C8
:02003E00060DAD
:02003F00062693
:02004000063E7A
:02004100065760
:02004200066F47
:0200430006882D
:0200440006A113
:0200450006B9FA
:0200460006D2E0
:0200470006EAC7
:020048000703AC
:02004900071B93
:02004A00073479
:02004B00074C60
:02004C00076546
:02004D00077D2D
:02004E00079613
:02004F0007AEFA
:0200500007C6E1
:0200510007DFC7
:0200520007F7AE
:02005300081093
:0200540008287A
:02005500084061
:02005600085848
:0200570008712E
:02005800088915
:0200590008A1FC
:02005A0008B9E3
:02005B0008D1CA
:02005C0008EAB0
:02005D00090296
:02005E00091A7D
:02005F00093264
:02006000094A4B
:02006100096232
:02006200097A19
:02006300099200
:0200640009AAE7
:0200650009C2CE
:0200660009DAB5
:0200670009F29C
:020068000A0A82
:020069000A2269
:02006A000A3951
:02006B000A5138
:02006C000A691F
:02006D000A8106
:02006E000A98EE
:02006F000AB0D5
:020070000AC8BC
:020071000ADFA4
:020072000AF78B
:020073000B0F71
:020074000B2659
:020075000B3E40
:020076000B5528
:020077000B6D0F
:020078000B84F7
:020079000B9CDE
:02007A000BB3C6
:02007B000BCAAE
:02007C000BE295
:02007D000BF97D
:02007E000C1064
:02007F000C284B
:020080000C3F33
:020081000C561B
:020082000C6D03
:020083000C84EB
:020084000C9CD2
:020085000CB3BA
:020086000CCAA2
:020087000CE18A
:020088000CF872
:020089000D0F59
:02008A000D2641
:02008B000D3D29
:02008C000D5312
:02008D000D6AFA
:02008E000D81E2
:02008F000D98CA
:020090000DAFB2
:020091000DC59B
:020092000DDC83
:020093000DF36B
:020094000E0953
:020095000E203B
:020096000E3624
:020097000E4D0C
:020098000E63F5
:020099000E7ADD
:02009A000E90C6
:02009B000EA6AF
:02009C000EBD97
:02009D000ED380
:02009E000EE969
:02009F000EFF52
:0200A0000F1639
:0200A1000F2C22
:0200A2000F420B
:0200A3000F58F4
:0200A4000F6EDD
:0200A5000F84C6
:0200A6000F9AAF
:0200A7000FB098
:0200A8000FC681
:0200A9000FDC6A
:0200AA000FF154
:0200AB0010073C
:0200AC00101D25
:0200AD0010330E
:0200AE001048F8
:0200AF00105EE1
:0200B0001074CA
:0200B1001089B4
:0200B200109F9D
:0200B30010B487
:0200B40010C971
:0200B50010DF5A
:0200B60010F444
:0200B70011092D
:0200B800111F16
:0200B900113400
:0200BA001149EA
:0200BB00115ED4
:0200BC001173BE
:0200BD001188A8
:0200BE00119D92
:0200BF0011B27C
:0200C00011C766
:0200C10011DC50
:0200C20011F13A
:0200C300120623
:0200C400121A0E
:0200C500122FF8
:0200C6001244E2
:0200C7001258CD
:0200C800126DB7
:0200C9001282A1
:0200CA0012968C
:0200CB0012AA77
:0200CC0012BF61
:0200CD0012D34C
:0200CE0012E836
:0200CF0012FC21
:0200D00013100B
:0200D1001324F6
:0200D2001338E1
:0200D300134CCC
:0200D4001360B7
:0200D5001374A2
:0200D60013888D
:0200D700139C78
:0200D80013B063
:0200D90013C44E
:0200DA0013D839
:0200DB0013EB25
:0200DC0013FF10
:0200DD001412FB
:0200DE001426E6
:0200DF001439D2
:0200E000144DBD
:0200E1001460A9
:0200E200147494
:0200E300148780
:0200E400149A6C
:0200E50014AD58
:0200E60014C143
:0200E70014D42F
:0200E80014E71B
:0200E90014FA07
:0200EA00150DF2
:0200EB001520DE
:0200EC001533CA
:0200ED001545B7
:0200EE001558A3
:0200EF00156B8F
:0200F000157D7C
:0200F100159068
:0200F20015A354
:0200F30015B541
:0200F40015C72E
:0200F50015DA1A
:0200F60015EC07
:0200F70015FEF4
:0200F8001611DF
:0200F9001623CC
:0200FA001635B9
:0200FB001647A6
:0200FC00165993
:0200FD00166B80
:0200FE00167D6D
:0200FF00168F5A
:00000001ff
