:020000040000FA
:020000000000FE
:020001000006F7
:02000200000DEF
:020003000013E8
:020004000019E1
:02000500001FDA
:020006000026D2
:02000700002CCB
:020008000032C4
:020009000039BC
:02000A00003FB5
:02000B000045AE
:02000C00004BA7
:02000D0000529F
:02000E00005898
:02000F00005E91
:02001000006589
:02001100006B82
:0200120000717B
:02001300007774
:02001400007E6C
:02001500008465
:02001600008A5E
:02001700009156
:0200180000974F
:02001900009D48
:02001A0000A341
:02001B0000AA39
:02001C0000B032
:02001D0000B62B
:02001E0000BC24
:02001F0000C31C
:0200200000C915
:0200210000CF0E
:0200220000D606
:0200230000DCFF
:0200240000E2F8
:0200250000E8F1
:0200260000EFE9
:0200270000F5E2
:0200280000FBDB
:020029000102D2
:02002A000108CB
:02002B00010EC4
:02002C000114BD
:02002D00011BB5
:02002E000121AE
:02002F000127A7
:02003000012E9F
:02003100013498
:02003200013A91
:0200330001408A
:02003400014782
:02003500014D7B
:02003600015374
:0200370001596D
:02003800016065
:0200390001665E
:02003A00016C57
:02003B0001734F
:02003C00017948
:02003D00017F41
:02003E0001853A
:02003F00018C32
:0200400001922B
:02004100019824
:02004200019F1C
:0200430001A515
:0200440001AB0E
:0200450001B107
:0200460001B8FF
:0200470001BEF8
:0200480001C4F1
:0200490001CAEA
:02004A0001D1E2
:02004B0001D7DB
:02004C0001DDD4
:02004D0001E4CC
:02004E0001EAC5
:02004F0001F0BE
:0200500001F6B7
:0200510001FDAF
:020052000203A7
:020053000209A0
:02005400020F99
:02005500021691
:02005600021C8A
:02005700022283
:0200580002297B
:02005900022F74
:02005A0002356D
:02005B00023B66
:02005C0002425E
:02005D00024857
:02005E00024E50
:02005F00025449
:02006000025B41
:0200610002613A
:02006200026733
:02006300026D2C
:02006400027424
:02006500027A1D
:02006600028016
:0200670002860F
:02006800028D07
:02006900029300
:02006A000299F9
:02006B0002A0F1
:02006C0002A6EA
:02006D0002ACE3
:02006E0002B2DC
:02006F0002B9D4
:0200700002BFCD
:0200710002C5C6
:0200720002CBBF
:0200730002D2B7
:0200740002D8B0
:0200750002DEA9
:0200760002E4A2
:0200770002EB9A
:0200780002F193
:0200790002F78C
:02007A0002FD85
:02007B0003047C
:02007C00030A75
:02007D0003106E
:02007E00031667
:02007F00031D5F
:02008000032358
:02008100032951
:02008200032F4A
:02008300033642
:02008400033C3B
:02008500034234
:0200860003482D
:02008700034F25
:0200880003551E
:02008900035B17
:02008A00036110
:02008B00036808
:02008C00036E01
:02008D000374FA
:02008E00037AF3
:02008F000381EB
:020090000387E4
:02009100038DDD
:020092000393D6
:02009300039ACE
:0200940003A0C7
:0200950003A6C0
:0200960003ACB9
:0200970003B3B1
:0200980003B9AA
:0200990003BFA3
:02009A0003C59C
:02009B0003CC94
:02009C0003D28D
:02009D0003D886
:02009E0003DE7F
:02009F0003E577
:0200A00003EB70
:0200A10003F169
:0200A20003F762
:0200A30003FD5B
:0200A400040452
:0200A500040A4B
:0200A600041044
:0200A70004163D
:0200A800041D35
:0200A90004232E
:0200AA00042927
:0200AB00042F20
:0200AC00043618
:0200AD00043C11
:0200AE0004420A
:0200AF00044803
:0200B000044EFC
:0200B1000455F4
:0200B200045BED
:0200B3000461E6
:0200B4000467DF
:0200B500046ED7
:0200B6000474D0
:0200B700047AC9
:0200B8000480C2
:0200B9000486BB
:0200BA00048DB3
:0200BB000493AC
:0200BC000499A5
:0200BD00049F9E
:0200BE0004A696
:0200BF0004AC8F
:0200C00004B288
:0200C10004B881
:0200C20004BE7A
:0200C30004C572
:0200C40004CB6B
:0200C50004D164
:0200C60004D75D
:0200C70004DE55
:0200C80004E44E
:0200C90004EA47
:0200CA0004F040
:0200CB0004F639
:0200CC0004FD31
:0200CD00050329
:0200CE00050922
:0200CF00050F1B
:0200D000051514
:0200D100051C0C
:0200D200052205
:0200D3000528FE
:0200D400052EF7
:0200D5000534F0
:0200D600053BE8
:0200D7000541E1
:0200D8000547DA
:0200D900054DD3
:0200DA000553CC
:0200DB00055AC4
:0200DC000560BD
:0200DD000566B6
:0200DE00056CAF
:0200DF000572A8
:0200E0000579A0
:0200E100057F99
:0200E200058592
:0200E300058B8B
:0200E400059184
:0200E50005977D
:0200E600059E75
:0200E70005A46E
:0200E80005AA67
:0200E90005B060
:0200EA0005B659
:0200EB0005BD51
:0200EC0005C34A
:0200ED0005C943
:0200EE0005CF3C
:0200EF0005D535
:0200F00005DB2E
:0200F10005E226
:0200F20005E81F
:0200F30005EE18
:0200F40005F411
:0200F50005FA0A
:0200F600060101
:0200F7000607FA
:0200F800060DF3
:0200F9000613EC
:0200FA000619E5
:0200FB00061FDE
:0200FC000626D6
:0200FD00062CCF
:0200FE000632C8
:0200FF000638C1
:02010000063EB9
:020101000644B2
:02010200064BAA
:020103000651A3
:0201040006579C
:02010500065D95
:0201060006638E
:02010700066987
:02010800066F80
:02010900067678
:02010A00067C71
:02010B0006826A
:02010C00068863
:02010D00068E5C
:02010E00069455
:02010F00069B4D
:0201100006A146
:0201110006A73F
:0201120006AD38
:0201130006B331
:0201140006B92A
:0201150006BF23
:0201160006C61B
:0201170006CC14
:0201180006D20D
:0201190006D806
:02011A0006DEFF
:02011B0006E4F8
:02011C0006EAF1
:02011D0006F0EA
:02011E0006F7E2
:02011F0006FDDB
:020120000703D3
:020121000709CC
:02012200070FC5
:020123000715BE
:02012400071BB7
:020125000722AF
:020126000728A8
:02012700072EA1
:0201280007349A
:02012900073A93
:02012A0007408C
:02012B00074685
:02012C00074C7E
:02012D00075277
:02012E0007596F
:02012F00075F68
:02013000076561
:02013100076B5A
:02013200077153
:0201330007774C
:02013400077D45
:0201350007833E
:02013600078937
:0201370007902F
:02013800079628
:02013900079C21
:02013A0007A21A
:02013B0007A813
:02013C0007AE0C
:02013D0007B405
:02013E0007BAFE
:02013F0007C0F7
:0201400007C6F0
:0201410007CDE8
:0201420007D3E1
:0201430007D9DA
:0201440007DFD3
:0201450007E5CC
:0201460007EBC5
:0201470007F1BE
:0201480007F7B7
:0201490007FDB0
:02014A000803A8
:02014B000809A1
:02014C00081099
:02014D00081692
:02014E00081C8B
:02014F00082284
:0201500008287D
:02015100082E76
:0201520008346F
:02015300083A68
:02015400084061
:0201550008465A
:02015600084C53
:0201570008524C
:02015800085845
:02015900085E3E
:02015A00086536
:02015B00086B2F
:02015C00087128
:02015D00087721
:02015E00087D1A
:02015F00088313
:0201600008890C
:02016100088F05
:020162000895FE
:02016300089BF7
:0201640008A1F0
:0201650008A7E9
:0201660008ADE2
:0201670008B3DB
:0201680008B9D4
:0201690008BFCD
:02016A0008C5C6
:02016B0008CBBF
:02016C0008D1B8
:02016D0008D8B0
:02016E0008DEA9
:02016F0008E4A2
:0201700008EA9B
:0201710008F094
:0201720008F68D
:0201730008FC86
:0201740009027E
:02017500090877
:02017600090E70
:02017700091469
:02017800091A62
:0201790009205B
:02017A00092654
:02017B00092C4D
:02017C00093246
:02017D0009383F
:02017E00093E38
:02017F00094431
:02018000094A2A
:02018100095023
:0201820009561C
:02018300095C15
:0201840009620E
:02018500096807
:02018600096E00
:020187000974F9
:02018800097AF2
:020189000980EB
:02018A000986E4
:02018B00098CDD
:02018C000992D6
:02018D000998CF
:02018E00099EC8
:02018F0009A4C1
:0201900009AABA
:0201910009B0B3
:0201920009B6AC
:0201930009BCA5
:0201940009C29E
:0201950009C897
:0201960009CE90
:0201970009D489
:0201980009DA82
:0201990009E07B
:02019A0009E674
:02019B0009EC6D
:02019C0009F266
:02019D0009F85F
:02019E0009FE58
:02019F000A0450
:0201A0000A0A49
:0201A1000A1042
:0201A2000A163B
:0201A3000A1C34
:0201A4000A222D
:0201A5000A2727
:0201A6000A2D20
:0201A7000A3319
:0201A8000A3912
:0201A9000A3F0B
:0201AA000A4504
:0201AB000A4BFD
:0201AC000A51F6
:0201AD000A57EF
:0201AE000A5DE8
:0201AF000A63E1
:0201B0000A69DA
:0201B1000A6FD3
:0201B2000A75CC
:0201B3000A7BC5
:0201B4000A81BE
:0201B5000A87B7
:0201B6000A8DB0
:0201B7000A92AA
:0201B8000A98A3
:0201B9000A9E9C
:0201BA000AA495
:0201BB000AAA8E
:0201BC000AB087
:0201BD000AB680
:0201BE000ABC79
:0201BF000AC272
:0201C0000AC86B
:0201C1000ACE64
:0201C2000AD45D
:0201C3000ADA56
:0201C4000ADF50
:0201C5000AE549
:0201C6000AEB42
:0201C7000AF13B
:0201C8000AF734
:0201C9000AFD2D
:0201CA000B0325
:0201CB000B091E
:0201CC000B0F17
:0201CD000B1510
:0201CE000B1A0A
:0201CF000B2003
:0201D0000B26FC
:0201D1000B2CF5
:0201D2000B32EE
:0201D3000B38E7
:0201D4000B3EE0
:0201D5000B44D9
:0201D6000B4AD2
:0201D7000B4FCC
:0201D8000B55C5
:0201D9000B5BBE
:0201DA000B61B7
:0201DB000B67B0
:0201DC000B6DA9
:0201DD000B73A2
:0201DE000B799B
:0201DF000B7E95
:0201E0000B848E
:0201E1000B8A87
:0201E2000B9080
:0201E3000B9679
:0201E4000B9C72
:0201E5000BA26B
:0201E6000BA765
:0201E7000BAD5E
:0201E8000BB357
:0201E9000BB950
:0201EA000BBF49
:0201EB000BC542
:0201EC000BCA3C
:0201ED000BD035
:0201EE000BD62E
:0201EF000BDC27
:0201F0000BE220
:0201F1000BE819
:0201F2000BED13
:0201F3000BF30C
:0201F4000BF905
:0201F5000BFFFE
:0201F6000C05F6
:0201F7000C0BEF
:0201F8000C10E9
:0201F9000C16E2
:0201FA000C1CDB
:0201FB000C22D4
:0201FC000C28CD
:0201FD000C2EC6
:0201FE000C33C0
:0201FF000C39B9
:020200000C3FB1
:020201000C45AA
:020202000C4BA3
:020203000C509D
:020204000C5696
:020205000C5C8F
:020206000C6288
:020207000C6881
:020208000C6D7B
:020209000C7374
:02020A000C796D
:02020B000C7F66
:02020C000C8460
:02020D000C8A59
:02020E000C9052
:02020F000C964B
:020210000C9C44
:020211000CA13E
:020212000CA737
:020213000CAD30
:020214000CB329
:020215000CB823
:020216000CBE1C
:020217000CC415
:020218000CCA0E
:020219000CCF08
:02021A000CD501
:02021B000CDBFA
:02021C000CE1F3
:02021D000CE6ED
:02021E000CECE6
:02021F000CF2DF
:020220000CF8D8
:020221000CFDD2
:020222000D03CA
:020223000D09C3
:020224000D0FBC
:020225000D14B6
:020226000D1AAF
:020227000D20A8
:020228000D26A1
:020229000D2B9B
:02022A000D3194
:02022B000D378D
:02022C000D3D86
:02022D000D4280
:02022E000D4879
:02022F000D4E72
:020230000D536C
:020231000D5965
:020232000D5F5E
:020233000D6557
:020234000D6A51
:020235000D704A
:020236000D7643
:020237000D7B3D
:020238000D8136
:020239000D872F
:02023A000D8C29
:02023B000D9222
:02023C000D981B
:02023D000D9D15
:02023E000DA30E
:02023F000DA907
:020240000DAF00
:020241000DB4FA
:020242000DBAF3
:020243000DC0EC
:020244000DC5E6
:020245000DCBDF
:020246000DD1D8
:020247000DD6D2
:020248000DDCCB
:020249000DE2C4
:02024A000DE7BE
:02024B000DEDB7
:02024C000DF3B0
:02024D000DF8AA
:02024E000DFEA3
:02024F000E039C
:020250000E0995
:020251000E0F8E
:020252000E1488
:020253000E1A81
:020254000E207A
:020255000E2574
:020256000E2B6D
:020257000E3166
:020258000E3660
:020259000E3C59
:02025A000E4252
:02025B000E474C
:02025C000E4D45
:02025D000E523F
:02025E000E5838
:02025F000E5E31
:020260000E632B
:020261000E6924
:020262000E6E1E
:020263000E7417
:020264000E7A10
:020265000E7F0A
:020266000E8503
:020267000E8AFD
:020268000E90F6
:020269000E96EF
:02026A000E9BE9
:02026B000EA1E2
:02026C000EA6DC
:02026D000EACD5
:02026E000EB2CE
:02026F000EB7C8
:020270000EBDC1
:020271000EC2BB
:020272000EC8B4
:020273000ECDAE
:020274000ED3A7
:020275000ED9A0
:020276000EDE9A
:020277000EE493
:020278000EE98D
:020279000EEF86
:02027A000EF480
:02027B000EFA79
:02027C000EFF73
:02027D000F056B
:02027E000F0B64
:02027F000F105E
:020280000F1657
:020281000F1B51
:020282000F214A
:020283000F2644
:020284000F2C3D
:020285000F3137
:020286000F3730
:020287000F3C2A
:020288000F4223
:020289000F471D
:02028A000F4D16
:02028B000F5210
:02028C000F5809
:02028D000F5E02
:02028E000F63FC
:02028F000F69F5
:020290000F6EEF
:020291000F74E8
:020292000F79E2
:020293000F7FDB
:020294000F84D5
:020295000F8ACE
:020296000F8FC8
:020297000F95C1
:020298000F9ABB
:020299000F9FB5
:02029A000FA5AE
:02029B000FAAA8
:02029C000FB0A1
:02029D000FB59B
:02029E000FBB94
:02029F000FC08E
:0202A0000FC687
:0202A1000FCB81
:0202A2000FD17A
:0202A3000FD674
:0202A4000FDC6D
:0202A5000FE167
:0202A6000FE760
:0202A7000FEC5A
:0202A8000FF154
:0202A9000FF74D
:0202AA000FFC47
:0202AB0010023F
:0202AC00100739
:0202AD00100D32
:0202AE0010122C
:0202AF00101825
:0202B000101D1F
:0202B100102219
:0202B200102812
:0202B300102D0C
:0202B400103305
:0202B5001038FF
:0202B600103EF8
:0202B7001043F2
:0202B8001048EC
:0202B900104EE5
:0202BA001053DF
:0202BB001059D8
:0202BC00105ED2
:0202BD001063CC
:0202BE001069C5
:0202BF00106EBF
:0202C0001074B8
:0202C1001079B2
:0202C200107EAC
:0202C3001084A5
:0202C40010899F
:0202C500108E99
:0202C600109492
:0202C70010998C
:0202C800109F85
:0202C90010A47F
:0202CA0010A979
:0202CB0010AF72
:0202CC0010B46C
:0202CD0010B966
:0202CE0010BF5F
:0202CF0010C459
:0202D00010C953
:0202D10010CF4C
:0202D20010D446
:0202D30010D940
:0202D40010DF39
:0202D50010E433
:0202D60010E92D
:0202D70010EF26
:0202D80010F420
:0202D90010F91A
:0202DA0010FF13
:0202DB0011040C
:0202DC00110906
:0202DD00110FFF
:0202DE001114F9
:0202DF001119F3
:0202E000111FEC
:0202E1001124E6
:0202E2001129E0
:0202E300112FD9
:0202E4001134D3
:0202E5001139CD
:0202E600113FC6
:0202E7001144C0
:0202E8001149BA
:0202E900114EB4
:0202EA001154AD
:0202EB001159A7
:0202EC00115EA1
:0202ED0011639B
:0202EE00116994
:0202EF00116E8E
:0202F000117388
:0202F100117981
:0202F200117E7B
:0202F300118375
:0202F40011886F
:0202F500118E68
:0202F600119362
:0202F70011985C
:0202F800119D56
:0202F90011A34F
:0202FA0011A849
:0202FB0011AD43
:0202FC0011B23D
:0202FD0011B836
:0202FE0011BD30
:0202FF0011C22A
:0203000011C723
:0203010011CC1D
:0203020011D216
:0203030011D710
:0203040011DC0A
:0203050011E104
:0203060011E7FD
:0203070011ECF7
:0203080011F1F1
:0203090011F6EB
:02030A0011FBE5
:02030B001201DD
:02030C001206D7
:02030D00120BD1
:02030E001210CB
:02030F001215C5
:02031000121ABF
:020311001220B8
:020312001225B2
:02031300122AAC
:02031400122FA6
:020315001234A0
:02031600123A99
:02031700123F93
:0203180012448D
:02031900124987
:02031A00124E81
:02031B0012537B
:02031C00125875
:02031D00125E6E
:02031E00126368
:02031F00126862
:02032000126D5C
:02032100127256
:02032200127750
:02032300127C4A
:02032400128243
:0203250012873D
:02032600128C37
:02032700129131
:0203280012962B
:02032900129B25
:02032A0012A01F
:02032B0012A519
:02032C0012AA13
:02032D0012B00C
:02032E0012B506
:02032F0012BA00
:0203300012BFFA
:0203310012C4F4
:0203320012C9EE
:0203330012CEE8
:0203340012D3E2
:0203350012D8DC
:0203360012DDD6
:0203370012E2D0
:0203380012E8C9
:0203390012EDC3
:02033A0012F2BD
:02033B0012F7B7
:02033C0012FCB1
:02033D001301AA
:02033E001306A4
:02033F00130B9E
:02034000131098
:02034100131592
:02034200131A8C
:02034300131F86
:02034400132480
:0203450013297A
:02034600132E74
:0203470013336E
:02034800133868
:02034900133D62
:02034A0013425C
:02034B00134756
:02034C00134C50
:02034D0013514A
:02034E00135644
:02034F00135B3E
:02035000136038
:02035100136532
:02035200136A2C
:02035300136F26
:02035400137420
:0203550013791A
:02035600137E14
:0203570013830E
:02035800138808
:02035900138D02
:02035A001392FC
:02035B001397F6
:02035C00139CF0
:02035D0013A1EA
:02035E0013A6E4
:02035F0013ABDE
:0203600013B0D8
:0203610013B5D2
:0203620013BACC
:0203630013BFC6
:0203640013C4C0
:0203650013C9BA
:0203660013CEB4
:0203670013D3AE
:0203680013D8A8
:0203690013DCA3
:02036A0013E19D
:02036B0013E697
:02036C0013EB91
:02036D0013F08B
:02036E0013F585
:02036F0013FA7F
:0203700013FF79
:02037100140472
:0203720014096C
:02037300140E66
:02037400141261
:0203750014175B
:02037600141C55
:0203770014214F
:02037800142649
:02037900142B43
:02037A0014303D
:02037B00143537
:02037C00143932
:02037D00143E2C
:02037E00144326
:02037F00144820
:02038000144D1A
:02038100145214
:0203820014570E
:02038300145C08
:02038400146003
:020385001465FD
:02038600146AF7
:02038700146FF1
:020388001474EB
:020389001479E5
:02038A00147DE0
:02038B001482DA
:02038C001487D4
:02038D00148CCE
:02038E001491C8
:02038F001495C3
:02039000149ABD
:02039100149FB7
:0203920014A4B1
:0203930014A9AB
:0203940014ADA6
:0203950014B2A0
:0203960014B79A
:0203970014BC94
:0203980014C18E
:0203990014C589
:02039A0014CA83
:02039B0014CF7D
:02039C0014D477
:02039D0014D971
:02039E0014DD6C
:02039F0014E266
:0203A00014E760
:0203A10014EC5A
:0203A20014F055
:0203A30014F54F
:0203A40014FA49
:0203A50014FF43
:0203A60015033D
:0203A700150837
:0203A800150D31
:0203A90015112C
:0203AA00151626
:0203AB00151B20
:0203AC0015201A
:0203AD00152415
:0203AE0015290F
:0203AF00152E09
:0203B000153303
:0203B1001537FE
:0203B200153CF8
:0203B3001541F2
:0203B4001545ED
:0203B500154AE7
:0203B600154FE1
:0203B7001553DC
:0203B8001558D6
:0203B900155DD0
:0203BA001561CB
:0203BB001566C5
:0203BC00156BBF
:0203BD00156FBA
:0203BE001574B4
:0203BF001579AE
:0203C000157DA9
:0203C1001582A3
:0203C20015879D
:0203C300158B98
:0203C400159092
:0203C50015958C
:0203C600159987
:0203C700159E81
:0203C80015A37B
:0203C90015A776
:0203CA0015AC70
:0203CB0015B06B
:0203CC0015B565
:0203CD0015BA5F
:0203CE0015BE5A
:0203CF0015C354
:0203D00015C74F
:0203D10015CC49
:0203D20015D143
:0203D30015D53E
:0203D40015DA38
:0203D50015DE33
:0203D60015E32D
:0203D70015E827
:0203D80015EC22
:0203D90015F11C
:0203DA0015F517
:0203DB0015FA11
:0203DC0015FE0C
:0203DD00160305
:0203DE001608FF
:0203DF00160CFA
:0203E0001611F4
:0203E1001615EF
:0203E200161AE9
:0203E300161EE4
:0203E4001623DE
:0203E5001627D9
:0203E600162CD3
:0203E7001630CE
:0203E8001635C8
:0203E900163AC2
:0203EA00163EBD
:0203EB001643B7
:0203EC001647B2
:0203ED00164CAC
:0203EE001650A7
:0203EF001655A1
:0203F00016599C
:0203F100165E96
:0203F200166291
:0203F30016678B
:0203F400166B86
:0203F500167080
:0203F60016747B
:0203F700167876
:0203F800167D70
:0203F90016816B
:0203FA00168665
:0203FB00168A60
:0203FC00168F5A
:0203FD00169355
:0203FE0016984F
:0203FF00169C4A
:00000001ff
