:020000040000FA
:020000002000DE
:020001002000DD
:020002002000DC
:020003002000DB
:020004001FFFDC
:020005001FFFDB
:020006001FFFDA
:020007001FFEDA
:020008001FFED9
:020009001FFDD9
:02000A001FFCD9
:02000B001FFBD9
:02000C001FFAD9
:02000D001FF9D9
:02000E001FF8D9
:02000F001FF7D9
:020010001FF6D9
:020011001FF5D9
:020012001FF4D9
:020013001FF2DA
:020014001FF1DA
:020015001FEFDB
:020016001FEDDC
:020017001FECDC
:020018001FEADD
:020019001FE8DE
:02001A001FE6DF
:02001B001FE4E0
:02001C001FE2E1
:02001D001FE0E2
:02001E001FDDE4
:02001F001FDBE5
:020020001FD9E6
:020021001FD6E8
:020022001FD3EA
:020023001FD1EB
:020024001FCEED
:020025001FCBEF
:020026001FC8F1
:020027001FC5F3
:020028001FC2F5
:020029001FBFF7
:02002A001FBCF9
:02002B001FB9FB
:02002C001FB5FE
:02002D001FB200
:02002E001FAF02
:02002F001FAB05
:020030001FA708
:020031001FA40A
:020032001FA00D
:020033001F9C10
:020034001F9813
:020035001F9416
:020036001F9019
:020037001F8C1C
:020038001F8720
:020039001F8323
:02003A001F7F26
:02003B001F7A2A
:02003C001F762D
:02003D001F7131
:02003E001F6C35
:02003F001F6739
:020040001F633C
:020041001F5E40
:020042001F5944
:020043001F5448
:020044001F4E4D
:020045001F4951
:020046001F4455
:020047001F3E5A
:020048001F395E
:020049001F3363
:02004A001F2E67
:02004B001F286C
:02004C001F2271
:02004D001F1C76
:02004E001F177A
:02004F001F117F
:020050001F0A85
:020051001F048A
:020052001EFE90
:020053001EF895
:020054001EF19B
:020055001EEBA0
:020056001EE5A5
:020057001EDEAB
:020058001ED7B1
:020059001ED1B6
:02005A001ECABC
:02005B001EC3C2
:02005C001EBCC8
:02005D001EB5CE
:02005E001EAED4
:02005F001EA7DA
:020060001E9FE1
:020061001E98E7
:020062001E91ED
:020063001E89F4
:020064001E81FB
:020065001E7A01
:020066001E7208
:020067001E6A0F
:020068001E6315
:020069001E5B1C
:02006A001E5323
:02006B001E4B2A
:02006C001E4232
:02006D001E3A39
:02006E001E3240
:02006F001E2A47
:020070001E214F
:020071001E1956
:020072001E105E
:020073001E0766
:020074001DFF6E
:020075001DF676
:020076001DED7E
:020077001DE486
:020078001DDB8E
:020079001DD296
:02007A001DC99E
:02007B001DC0A6
:02007C001DB6AF
:02007D001DADB7
:02007E001DA4BF
:02007F001D9AC8
:020080001D90D1
:020081001D87D9
:020082001D7DE2
:020083001D73EB
:020084001D69F4
:020085001D5FFD
:020086001D5506
:020087001D4B0F
:020088001D4118
:020089001D3721
:02008A001D2D2A
:02008B001D2234
:02008C001D183D
:02008D001D0D47
:02008E001D0350
:02008F001CF85B
:020090001CED65
:020091001CE36E
:020092001CD878
:020093001CCD82
:020094001CC28C
:020095001CB796
:020096001CACA0
:020097001CA1AA
:020098001C95B5
:020099001C8ABF
:02009A001C7FC9
:02009B001C73D4
:02009C001C68DE
:02009D001C5CE9
:02009E001C50F4
:02009F001C45FE
:0200A0001C3909
:0200A1001C2D14
:0200A2001C211F
:0200A3001C152A
:0200A4001C0935
:0200A5001BFD41
:0200A6001BF04D
:0200A7001BE458
:0200A8001BD863
:0200A9001BCB6F
:0200AA001BBF7A
:0200AB001BB286
:0200AC001BA691
:0200AD001B999D
:0200AE001B8CA9
:0200AF001B7FB5
:0200B0001B73C0
:0200B1001B66CC
:0200B2001B59D8
:0200B3001B4BE5
:0200B4001B3EF1
:0200B5001B31FD
:0200B6001B2409
:0200B7001B1616
:0200B8001B0922
:0200B9001AFC2F
:0200BA001AEE3C
:0200BB001AE049
:0200BC001AD355
:0200BD001AC562
:0200BE001AB76F
:0200BF001AA97C
:0200C0001A9B89
:0200C1001A8D96
:0200C2001A7FA3
:0200C3001A71B0
:0200C4001A63BD
:0200C5001A55CA
:0200C6001A46D8
:0200C7001A38E5
:0200C8001A2AF2
:0200C9001A1B00
:0200CA001A0D0D
:0200CB0019FE1C
:0200CC0019EF2A
:0200CD0019E137
:0200CE0019D245
:0200CF0019C353
:0200D00019B461
:0200D10019A56F
:0200D20019967D
:0200D30019878B
:0200D40019779A
:0200D5001968A8
:0200D6001959B6
:0200D700194AC4
:0200D800193AD3
:0200D900192BE1
:0200DA00191BF0
:0200DB00190BFF
:0200DC0018FC0E
:0200DD0018EC1D
:0200DE0018DC2C
:0200DF0018CC3B
:0200E00018BD49
:0200E10018AD58
:0200E200189C68
:0200E300188C77
:0200E400187C86
:0200E500186C95
:0200E600185CA4
:0200E700184BB4
:0200E800183BC3
:0200E900182BD2
:0200EA00181AE2
:0200EB00180AF1
:0200EC0017F902
:0200ED0017E812
:0200EE0017D821
:0200EF0017C731
:0200F00017B641
:0200F10017A551
:0200F200179461
:0200F300178371
:0200F400177281
:0200F500176191
:0200F6001750A1
:0200F700173EB2
:0200F800172DC2
:0200F900171CD2
:0200FA00170AE3
:0200FB0016F9F4
:0200FC0016E705
:0200FD0016D615
:0200FE0016C426
:0200FF0016B237
:00000001ff
